{
  "contractName": "PredictionMarket",
  "abi": [
    {
      "inputs": [
        {
          "internalType": "address",
          "name": "_oracle",
          "type": "address"
        }
      ],
      "stateMutability": "nonpayable",
      "type": "constructor"
    },
    {
      "inputs": [
        {
          "internalType": "enum PredictionMarket.Side",
          "name": "",
          "type": "uint8"
        }
      ],
      "name": "bets",
      "outputs": [
        {
          "internalType": "uint256",
          "name": "",
          "type": "uint256"
        }
      ],
      "stateMutability": "view",
      "type": "function"
    },
    {
      "inputs": [
        {
          "internalType": "address",
          "name": "",
          "type": "address"
        },
        {
          "internalType": "enum PredictionMarket.Side",
          "name": "",
          "type": "uint8"
        }
      ],
      "name": "betsPerGambler",
      "outputs": [
        {
          "internalType": "uint256",
          "name": "",
          "type": "uint256"
        }
      ],
      "stateMutability": "view",
      "type": "function"
    },
    {
      "inputs": [],
      "name": "electionFinished",
      "outputs": [
        {
          "internalType": "bool",
          "name": "",
          "type": "bool"
        }
      ],
      "stateMutability": "view",
      "type": "function"
    },
    {
      "inputs": [],
      "name": "oracle",
      "outputs": [
        {
          "internalType": "address",
          "name": "",
          "type": "address"
        }
      ],
      "stateMutability": "view",
      "type": "function"
    },
    {
      "inputs": [],
      "name": "result",
      "outputs": [
        {
          "internalType": "enum PredictionMarket.Side",
          "name": "winner",
          "type": "uint8"
        },
        {
          "internalType": "enum PredictionMarket.Side",
          "name": "loser",
          "type": "uint8"
        }
      ],
      "stateMutability": "view",
      "type": "function"
    },
    {
      "inputs": [
        {
          "internalType": "enum PredictionMarket.Side",
          "name": "_side",
          "type": "uint8"
        }
      ],
      "name": "placeBet",
      "outputs": [],
      "stateMutability": "payable",
      "type": "function"
    },
    {
      "inputs": [],
      "name": "withdrawGain",
      "outputs": [],
      "stateMutability": "nonpayable",
      "type": "function"
    },
    {
      "inputs": [
        {
          "internalType": "enum PredictionMarket.Side",
          "name": "_winner",
          "type": "uint8"
        },
        {
          "internalType": "enum PredictionMarket.Side",
          "name": "_loser",
          "type": "uint8"
        }
      ],
      "name": "reportResult",
      "outputs": [],
      "stateMutability": "nonpayable",
      "type": "function"
    }
  ],
  "bytecode": "0x608060405234801561001057600080fd5b50604051610ed7380380610ed7833981810160405281019061003291906100dc565b80600460006101000a81548173ffffffffffffffffffffffffffffffffffffffff021916908373ffffffffffffffffffffffffffffffffffffffff16021790555050610109565b600080fd5b600073ffffffffffffffffffffffffffffffffffffffff82169050919050565b60006100a98261007e565b9050919050565b6100b98161009e565b81146100c457600080fd5b50565b6000815190506100d6816100b0565b92915050565b6000602082840312156100f2576100f1610079565b5b6000610100848285016100c7565b91505092915050565b610dbf806101186000396000f3fe60806040526004361061007b5760003560e01c80637dc0d1d01161004e5780637dc0d1d0146101085780637e0ecc00146101335780639d5a373914610170578063beab6e7e146101ad5761007b565b80632b539c861461008057806343046844146100975780634ec942b7146100b357806365372147146100dc575b600080fd5b34801561008c57600080fd5b506100956101d8565b005b6100b160048036038101906100ac919061084a565b6104f0565b005b3480156100bf57600080fd5b506100da60048036038101906100d59190610877565b610622565b005b3480156100e857600080fd5b506100f161077e565b6040516100ff92919061092e565b60405180910390f35b34801561011457600080fd5b5061011d6107aa565b60405161012a9190610998565b60405180910390f35b34801561013f57600080fd5b5061015a6004803603810190610155919061084a565b6107d0565b60405161016791906109cc565b60405180910390f35b34801561017c57600080fd5b5061019760048036038101906101929190610a13565b6107e8565b6040516101a491906109cc565b60405180910390f35b3480156101b957600080fd5b506101c261080d565b6040516101cf9190610a6e565b60405180910390f35b6000600360003373ffffffffffffffffffffffffffffffffffffffff1673ffffffffffffffffffffffffffffffffffffffff16815260200190815260200160002060008060000160009054906101000a900460ff16600181111561023f5761023e6108b7565b5b6001811115610251576102506108b7565b5b8152602001908152602001600020549050600081116102a5576040517f08c379a000000000000000000000000000000000000000000000000000000000815260040161029c90610ae6565b60405180910390fd5b60011515600160009054906101000a900460ff161515146102fb576040517f08c379a00000000000000000000000000000000000000000000000000000000081526004016102f290610b52565b60405180910390fd5b6000600260008060000160009054906101000a900460ff166001811115610325576103246108b7565b5b6001811115610337576103366108b7565b5b81526020019081526020016000205482600260008060000160019054906101000a900460ff16600181111561036f5761036e6108b7565b5b6001811115610381576103806108b7565b5b81526020019081526020016000205461039a9190610ba1565b6103a49190610c2a565b826103af9190610c5b565b90506000600360003373ffffffffffffffffffffffffffffffffffffffff1673ffffffffffffffffffffffffffffffffffffffff1681526020019081526020016000206000806001811115610407576104066108b7565b5b6001811115610419576104186108b7565b5b8152602001908152602001600020819055506000600360003373ffffffffffffffffffffffffffffffffffffffff1673ffffffffffffffffffffffffffffffffffffffff1681526020019081526020016000206000600180811115610481576104806108b7565b5b6001811115610493576104926108b7565b5b8152602001908152602001600020819055503373ffffffffffffffffffffffffffffffffffffffff166108fc829081150290604051600060405180830381858888f193505050501580156104eb573d6000803e3d6000fd5b505050565b60001515600160009054906101000a900460ff16151514610546576040517f08c379a000000000000000000000000000000000000000000000000000000000815260040161053d90610cfd565b60405180910390fd5b346002600083600181111561055e5761055d6108b7565b5b60018111156105705761056f6108b7565b5b8152602001908152602001600020600082825461058d9190610c5b565b9250508190555034600360003373ffffffffffffffffffffffffffffffffffffffff1673ffffffffffffffffffffffffffffffffffffffff16815260200190815260200160002060008360018111156105e9576105e86108b7565b5b60018111156105fb576105fa6108b7565b5b815260200190815260200160002060008282546106189190610c5b565b9250508190555050565b3373ffffffffffffffffffffffffffffffffffffffff16600460009054906101000a900473ffffffffffffffffffffffffffffffffffffffff1673ffffffffffffffffffffffffffffffffffffffff16146106b2576040517f08c379a00000000000000000000000000000000000000000000000000000000081526004016106a990610d69565b60405180910390fd5b60001515600160009054906101000a900460ff16151514610708576040517f08c379a00000000000000000000000000000000000000000000000000000000081526004016106ff90610cfd565b60405180910390fd5b816000800160006101000a81548160ff0219169083600181111561072f5761072e6108b7565b5b0217905550806000800160016101000a81548160ff0219169083600181111561075b5761075a6108b7565b5b021790555060018060006101000a81548160ff0219169083151502179055505050565b60008060000160009054906101000a900460ff16908060000160019054906101000a900460ff16905082565b600460009054906101000a900473ffffffffffffffffffffffffffffffffffffffff1681565b60026020528060005260406000206000915090505481565b6003602052816000526040600020602052806000526040600020600091509150505481565b600160009054906101000a900460ff1681565b600080fd5b6002811061083257600080fd5b50565b60008135905061084481610825565b92915050565b6000602082840312156108605761085f610820565b5b600061086e84828501610835565b91505092915050565b6000806040838503121561088e5761088d610820565b5b600061089c85828601610835565b92505060206108ad85828601610835565b9150509250929050565b7f4e487b7100000000000000000000000000000000000000000000000000000000600052602160045260246000fd5b600281106108f7576108f66108b7565b5b50565b6000819050610908826108e6565b919050565b6000610918826108fa565b9050919050565b6109288161090d565b82525050565b6000604082019050610943600083018561091f565b610950602083018461091f565b9392505050565b600073ffffffffffffffffffffffffffffffffffffffff82169050919050565b600061098282610957565b9050919050565b61099281610977565b82525050565b60006020820190506109ad6000830184610989565b92915050565b6000819050919050565b6109c6816109b3565b82525050565b60006020820190506109e160008301846109bd565b92915050565b6109f081610977565b81146109fb57600080fd5b50565b600081359050610a0d816109e7565b92915050565b60008060408385031215610a2a57610a29610820565b5b6000610a38858286016109fe565b9250506020610a4985828601610835565b9150509250929050565b60008115159050919050565b610a6881610a53565b82525050565b6000602082019050610a836000830184610a5f565b92915050565b600082825260208201905092915050565b7f596f7520646f206e6f74206861766520616e792077696e6e696e672062657400600082015250565b6000610ad0601f83610a89565b9150610adb82610a9a565b602082019050919050565b60006020820190508181036000830152610aff81610ac3565b9050919050565b7f456c656374696f6e206973206e6f742066696e69736865640000000000000000600082015250565b6000610b3c601883610a89565b9150610b4782610b06565b602082019050919050565b60006020820190508181036000830152610b6b81610b2f565b9050919050565b7f4e487b7100000000000000000000000000000000000000000000000000000000600052601160045260246000fd5b6000610bac826109b3565b9150610bb7836109b3565b9250817fffffffffffffffffffffffffffffffffffffffffffffffffffffffffffffffff0483118215151615610bf057610bef610b72565b5b828202905092915050565b7f4e487b7100000000000000000000000000000000000000000000000000000000600052601260045260246000fd5b6000610c35826109b3565b9150610c40836109b3565b925082610c5057610c4f610bfb565b5b828204905092915050565b6000610c66826109b3565b9150610c71836109b3565b9250827fffffffffffffffffffffffffffffffffffffffffffffffffffffffffffffffff03821115610ca657610ca5610b72565b5b828201905092915050565b7f456c656374696f6e2069732066696e6973686564000000000000000000000000600082015250565b6000610ce7601483610a89565b9150610cf282610cb1565b602082019050919050565b60006020820190508181036000830152610d1681610cda565b9050919050565b7f6f6e6c79206f7261636c65000000000000000000000000000000000000000000600082015250565b6000610d53600b83610a89565b9150610d5e82610d1d565b602082019050919050565b60006020820190508181036000830152610d8281610d46565b905091905056fea264697066735822122000a074f2413cd9f24576a1df8108c009b5bb778ef9ca94fe3e1f0fabbb12a61f64736f6c634300080a0033",
  "immutableReferences": {},
  "source": "// SPDX-License-Identifier: GPL-3.0-or-later\npragma solidity >=0.6.0 <0.9.0;\n\ncontract PredictionMarket {\n    enum Side { Lee, Yoon }\n    struct Result {\n      Side winner;\n      Side loser;\n    }\n    Result public result;\n    bool public electionFinished;\n\n    mapping(Side => uint) public bets;\n    mapping(address => mapping(Side => uint)) public betsPerGambler;\n    address public oracle;\n    \n    constructor(address _oracle) {\n        oracle = _oracle;\n    }\n\n    function placeBet(Side _side) external payable {\n        require(electionFinished == false, \"Election is finished\");\n        bets[_side] += msg.value;\n        betsPerGambler[msg.sender][_side] += msg.value; \n    }\n\n    function withdrawGain() external {\n        uint gamblerBet = betsPerGambler[msg.sender][result.winner];\n        require(gamblerBet > 0, \"You do not have any winning bet\");\n        require(electionFinished == true, \"Election is not finished\");\n        uint gain = gamblerBet + bets[result.loser] * gamblerBet / bets[result.winner];\n        betsPerGambler[msg.sender][Side.Lee] = 0;\n        betsPerGambler[msg.sender][Side.Yoon] = 0;\n        payable(msg.sender).transfer(gain);\n    }\n\n    function reportResult(Side _winner, Side _loser) external {\n        require(oracle == msg.sender, \"only oracle\");\n        require(electionFinished == false, \"Election is finished\");\n        result.winner = _winner;\n        result.loser = _loser;\n        electionFinished = true;\n    }\n}",
  "sourcePath": "/Users/hyunabae/prediction-markets-election/contracts/PredictionMarket.sol",
  "compiler": {
    "name": "solc",
    "version": "0.8.10+commit.fc410830.Emscripten.clang"
  },
  "schemaVersion": "3.4.3",
  "updatedAt": "2022-01-06T13:32:13.700Z",
  "devdoc": {
    "kind": "dev",
    "methods": {},
    "version": 1
  },
  "userdoc": {
    "kind": "user",
    "methods": {},
    "version": 1
  }
}